:020000040000FA
:100000000C945D000C9485000C9485000C94850084
:100010000C9485000C9485000C9485000C9485004C
:100020000C9485000C9485000C9485000C9485003C
:100030000C9485000C9485000C9485000C9485002C
:100040000C94CD030C9485000C9485000C948500D1
:100050000C9485000C9485000C9485000C9485000C
:100060000C9485000C9485000000000024002700FB
:100070002A0000000000250028002B0004040404CE
:100080000404040402020202020203030303030342
:10009000010204081020408001020408102001021F
:1000A00004081020000000080002010000030407FB
:1000B00000000000000000001E0611241FBECFEF4C
:1000C000D8E0DEBFCDBF11E0A0E0B1E0E4E4F1E1B3
:1000D00002C005900D92A636B107D9F721E0A6E639
:1000E000B1E001C01D92A738B207E1F710E0CDE5FD
:1000F000D0E004C02197FE010E949A08CC35D107B8
:10010000C9F70E9417040C94A0080C94000090E01A
:10011000FC01EC55FF4F2491FC01E057FF4F349157
:10012000FC01E458FF4FE491EE23C9F0222339F09B
:10013000233001F1A8F4213019F1223029F1F0E047
:10014000EE0FFF1FEE58FF4FA591B4918FB7F894B3
:10015000EC91611126C030953E233C938FBF0895EA
:100160002730A9F02830C9F0243049F78091800069
:100170008F7D03C0809180008F7780938000DFCFD8
:1001800084B58F7784BDDBCF84B58F7DFBCF809125
:10019000B0008F778093B000D2CF8091B0008F7D78
:1001A000F9CF3E2BDACFCF93DF9390E0FC01E057FD
:1001B000FF4F249184589F4FFC0184918823D1F0F4
:1001C00090E0880F991FFC01E859FF4FA591B49169
:1001D000FC01EE58FF4FC591D49161110EC09FB73D
:1001E000F8948C91E22FE0958E238C932881E22362
:1001F000E8839FBFDF91CF9108958FB7F894EC917A
:10020000E22BEC938FBFF6CF8E50806480937C00FE
:1002100080917A00806480937A0080917A0086FDD4
:10022000FCCF80917800909179000895AF92BF92B1
:10023000CF92DF92EF92FF920F931F93CF93DF93B2
:100240006C017B018B01040F151FEB015E01AE18E1
:10025000BF08C017D10759F06991D601ED91FC9103
:100260000190F081E02DC6010995892B79F7C50130
:10027000DF91CF911F910F91FF90EF90DF90CF9082
:10028000BF90AF900895089590E080E00895FC013C
:1002900001900020E9F73197AF01481B590BBC01D1
:1002A0008FE691E00C9416018F929F92AF92BF92CD
:1002B0000F931F93CF93DF93CDB7DEB7A1970FB600
:1002C000F894DEBF0FBECDBF19A2423008F44AE059
:1002D0008E010F5D1F4F842E912CB12CA12CA501F6
:1002E00094010E947808E62FB901CA01EA30F4F4BB
:1002F000E05DD801EE938D01232B242B252B79F77C
:1003000090E080E0109719F0CD010E944701A1967E
:100310000FB6F894DEBF0FBECDBFDF91CF911F9116
:100320000F91BF90AF909F908F900895E95CE1CFBF
:10033000CF93DF93EC0160E08E810E94870061E043
:100340008E810E94870060E08E810E9487008BE88A
:1003500091E00197F1F7DF91CF910895CF92DF926D
:10036000EF92FF920F931F93CF93DF936C017C0169
:1003700087E0E80EF11CD0E0C0E0062F10E0B801E5
:100380000C2E02C0759567950A94E2F76170F7012B
:1003900081917F010E9487002196C430D10579F7B1
:1003A000C601DF91CF911F910F91FF90EF90DF90E9
:1003B000CF900C949801CF92DF92EF92FF920F931F
:1003C0001F93CF93DF93EC01F62E642F8C810E9454
:1003D00087008D818F3F19F060E00E9487000F2D0C
:1003E00010E08F8584FF25C06E0187E0C80ED11C08
:1003F000F12CE12CB8010E2C02C0759567950A947A
:10040000E2F76170F60181916F010E948700FFEFB2
:10041000EF1AFF0A88E0E816F10461F7CE01DF91D8
:10042000CF911F910F91FF90EF90DF90CF900C94A0
:100430009801B80184E0759567958A95E1F7CE013A
:100440000E94AE016F2DCE01DF91CF911F910F91D0
:10045000FF90EF90DF90CF900C94AE0140E0682FBA
:100460008FE691E00C94DB01CF93DF93823029F487
:1004700090917E01986090937E018093820110920A
:10048000830180E48093840180E18093850180E58D
:100490008093860161E0809173010E94D300809176
:1004A00074018F3F19F061E00E94D30061E08091F8
:1004B00075010E94D300CFE6D1E09E012F56314056
:1004C00080917E0184FD0BC084E090E02196281786
:1004D000390744F461E08E810E94D300EECF88E0BA
:1004E00090E0F4CF8BE39DE00197F1F760E080911D
:1004F00073010E94870060E0809175010E9487006F
:10050000809174018F3F19F060E00E948700809114
:100510007E0184FD39C063E08FE691E00E94AE0168
:10052000CBE4D6E4CE010197F1F763E08FE691E0EA
:100530000E94AE012197F1F763E08FE691E00E94FF
:10054000AE0183E592E00197F1F762E08FE691E07A
:100550000E94AE0180917E0180620E942E0284E0A2
:1005600080937F018CE00E942E0281E00E942E0287
:100570008BE39FE10197F1F782E08093800186E0B1
:10058000DF91CF910C942E0280620E942E028BE4A8
:1005900096E40197F1F780917E0180620E942E021D
:1005A00083E592E00197F1F780917E0180620E94DD
:1005B0002E02D0CF90918201691710F06FEF690F72
:1005C000E62FF0E0E159FE4F9489890F80680C9482
:1005D0002E0241E00E94DB0181E090E008954F92FD
:1005E0005F926F927F928F929F92AF92BF92CF92C3
:1005F000DF92EF92FF920F931F93CF936B017C01D9
:10060000742EAC019B010E947308882399F08CE042
:1006100091E0CF911F910F91FF90EF90DF90CF90DD
:10062000BF90AF909F908F907F906F905F904F9012
:100630000C94470146015701E894B7F82FEF3FEFBC
:100640004FE75FE7C501B4010E94730881110DC037
:100650002FEF3FEF4FE75FE7C501B4010E94A90606
:1006600018161CF480E191E0D4CF2FEF3FEF4FE755
:100670005FE4C701B6010E94010818161CF484E16A
:1006800091E0C7CF2FEF3FEF4FE75FECC701B60117
:100690000E94A90687FDF3CF20E030E0A901C70141
:1006A000B6010E94A90610E000E087FF0CC041E0FF
:1006B0006DE28FE691E00E94DB01F7FAF094F7F823
:1006C000F09401E010E0C0E060E070E080E09FE3C3
:1006D0007C1641F020E030E040E251E40E94AE069A
:1006E000CF5FF6CFA70196010E943D064B015C014A
:1006F0000E9420072B013C014AE00E945401080F90
:10070000191FCC23C9F1C301B2010E944F079B01FD
:10071000AC01C501B4010E943C064B015C0141E003
:100720006EE28FE691E00E94DB010F5F1F4FC15028
:1007300018F120E030E040E251E4C501B4010E942C
:1007400006082B013C010E9420074B01B12CA12C73
:100750004AE0C501B4010E945401080F191FC501E8
:10076000B4010E944F079B01AC01C301B2010E947A
:100770003C064B015C01DBCFC801CF911F910F916B
:10078000FF90EF90DF90CF90BF90AF909F908F90B1
:100790007F906F905F904F9008951F920F920FB6C9
:1007A0000F9211242F933F938F939F93AF93BF93F7
:1007B00080916B0190916C01A0916D01B0916E01DF
:1007C00030916A0123E0230F2D3758F50196A11DC2
:1007D000B11D20936A0180936B0190936C01A093EB
:1007E0006D01B0936E018091660190916701A091B7
:1007F0006801B09169010196A11DB11D8093660148
:1008000090936701A0936801B0936901BF91AF9184
:100810009F918F913F912F910F900FBE0F901F903E
:10082000189526E8230F0296A11DB11DD2CF78940A
:1008300084B5826084BD84B5816084BD85B58260E5
:1008400085BD85B5816085BD80916E008160809396
:100850006E001092810080918100826080938100FF
:10086000809181008160809381008091800081600F
:10087000809380008091B10084608093B10080916A
:10088000B00081608093B00080917A008460809392
:100890007A0080917A00826080937A0080917A0059
:1008A000816080937A0080917A00806880937A00DA
:1008B0001092C10082E00E94340260E08EE00E944B
:1008C000D30060E08FE00E94D30060E080E10E94EE
:1008D000D300C0E0D0E08EE00E940401BC01990F7B
:1008E000880B990B0E9451072B013C018FE00E945D
:1008F0000401BC01990F880B990B0E9451074B0111
:100900005C0180E10E940401BC01990F880B990BE6
:100910000E9451076B017C0120E030E040E251E48D
:10092000C301B2010E94A90687FF3EC020E030E06B
:10093000A901C501B4010E94010820E030E040E2B5
:1009400051E4181624F020E030E040E251ECC501FB
:10095000B4010E94A906811127C020E030E0A9015E
:10096000C701B6010E94010820E030E040E251E4F6
:10097000181624F020E030E040E251ECC701B60147
:100980000E94A906811110C060E080E00E94DA0296
:1009900088E191E00E94470161E081E00E94DA0273
:1009A0008BE291E00E94470120E030E0A901C30101
:1009B000B2010E94010820E030E0A90118160CF0F5
:1009C000A2C0C501B4010E94010818160CF04CC069
:1009D00020E030E044EA51E4C501B4010E94A906D8
:1009E00087FD4CC020E030E044EA51E4C301B2018D
:1009F0000E94A90687FFEFC020E030E0A901C701EF
:100A0000B6010E94010818160CF0F0C020E030E09A
:100A100044EA51E4C701B6010E94A90687FF8EC0CF
:100A200060E080E00E94DA0284E591E00E944701E4
:100A300061E081E00E94DA0220E030E040EA51E427
:100A4000C501B4010E94060820E030E040EA50E40D
:100A50000E94060820E030E040E85AE30E940608C1
:100A600042E00E94EF02B7C020E030E044EA51ECDF
:100A7000C501B4010E9401081816DCF520E030E041
:100A8000A901C701B6010E940108181644F520E02B
:100A900030E044EA51E4C701B6010E94A90687FF8D
:100AA00028C060E080E00E94DA0287E491E00E94C2
:100AB000470161E081E00E94DA0220E030E040E29C
:100AC00051E4C301B2010E94060820E030E040E892
:100AD0005AE30E94060842E00E94EF020AC020E0AA
:100AE00030E044EA51ECC701B6010E940108181633
:100AF000C4F220E030E0A901C501B4010E94010860
:100B0000181644F46FCFC501B4010E9401081816ED
:100B10000CF456C020E030E0A901C701B6010E94E4
:100B2000010818160CF078C020E030E0A901C501DA
:100B3000B4010E94010818160CF063C020E030E0F8
:100B400044EA51E4C501B4010E94A90687FF64C0CC
:100B500020E030E0A901C301B2010E94010818168B
:100B60000CF060C020E030E044EA51E4C301B2017F
:100B70000E94A90687FF50C060E080E00E94DA0270
:100B800084E591E00E94470161E081E00E94DA0281
:100B900020E030E048E453E4C701B6010E940608B3
:100BA00020E030E040EA50E40E94060820E030E017
:100BB00040E85AE30E94060842E00E94EF022CC07F
:100BC00020E030E044EA51ECC301B2010E94010888
:100BD00018160CF411CF20E030E0A901C701B601CE
:100BE0000E94010818160CF4A9CF16C020E030E0CE
:100BF00044EA51ECC701B6010E94010818165CF7DF
:100C00000FCF20E030E044EA51ECC501B4010E946E
:100C1000010818160CF49CCF209709F45CCE0E94B2
:100C2000000059CE20E030E044EA51ECC301B201AB
:100C30000E94010818160CF49FCFEECFEFE6F1E00A
:100C40001382128284E091E0918380838CE084831C
:100C50008FEF85838BE0868385E0878384E08087C0
:100C600083E0818782E08287138614861586168644
:100C7000178681E00C9434025058BB27AA270E94A3
:100C800054060C94C7070E94B90738F00E94C007A9
:100C900020F039F49F3F19F426F40C94B6070EF4B3
:100CA000E095E7FB0C94B007E92F0E94D80758F3B2
:100CB000BA17620773078407950720F079F4A6F541
:100CC0000C94FA070EF4E0950B2EBA2FA02D0B0111
:100CD000B90190010C01CA01A0011124FF27591B81
:100CE00099F0593F50F4503E68F11A16F040A22F87
:100CF000232F342F4427585FF3CF469537952795F8
:100D0000A795F0405395C9F77EF41F16BA0B620BF6
:100D1000730B840BBAF09150A1F0FF0FBB1F661F3D
:100D2000771F881FC2F70EC0BA0F621F731F841F80
:100D300048F4879577956795B795F7959E3F08F0A6
:100D4000B0CF9395880F08F09927EE0F9795879568
:100D500008950E948C0708F481E008950E94C2065D
:100D60000C94C7070E94C00758F00E94B90740F0D2
:100D700029F45F3F29F00C94B00751110C94FB0744
:100D80000C94B6070E94D80768F39923B1F3552352
:100D900091F3951B550BBB27AA276217730784078E
:100DA00038F09F5F5F4F220F331F441FAA1FA9F324
:100DB00035D00E2E3AF0E0E832D091505040E69512
:100DC000001CCAF72BD0FE2F29D0660F771F881F73
:100DD000BB1F261737074807AB07B0E809F0BB0B66
:100DE000802DBF01FF2793585F4F3AF09E3F51057A
:100DF00078F00C94B0070C94FB075F3FE4F3983E47
:100E0000D4F3869577956795B795F7959F5FC9F762
:100E1000880F911D9695879597F90895E1E0660FE3
:100E2000771F881FBB1F621773078407BA0720F05C
:100E3000621B730B840BBA0BEE1F88F7E0950895C5
:100E40000E94E00788F09F5798F0B92F9927B75173
:100E5000B0F0E1F0660F771F881F991F1AF0BA955E
:100E6000C9F714C0B13091F00E94FA07B1E00895BB
:100E70000C94FA07672F782F8827B85F39F0B93FAD
:100E8000CCF3869577956795B395D9F73EF4909511
:100E90008095709561957F4F8F4F9F4F0895E8948F
:100EA00009C097FB3EF490958095709561957F4FB2
:100EB0008F4F9F4F9923A9F0F92F96E9BB27939560
:100EC000F695879577956795B795F111F8CFFAF470
:100ED000BB0F11F460FF1BC06F5F7F4F8F4F9F4FA1
:100EE00016C0882311F096E911C0772321F09EE8FF
:100EF000872F762F05C0662371F096E8862F70E065
:100F000060E02AF09A95660F771F881FDAF7880F3E
:100F10009695879597F90895990F0008550FAA0B94
:100F2000E0E8FEEF16161706E807F907C0F01216FC
:100F30001306E407F50798F0621B730B840B950BFF
:100F400039F40A2661F0232B242B252B21F4089554
:100F50000A2609F4A140A6958FEF811D811D0895F1
:100F600097F99F6780E870E060E008959FEF80EC5C
:100F7000089500240A9416161706180609060895FF
:100F800000240A9412161306140605060895092E65
:100F90000394000C11F4882352F0BB0F40F4BF2BD4
:100FA00011F460FF04C06F5F7F4F8F4F9F4F089514
:100FB00057FD9058440F551F59F05F3F71F047950A
:100FC000880F97FB991F61F09F3F79F087950895EF
:100FD000121613061406551FF2CF4695F1DF08C00E
:100FE000161617061806991FF1CF8695710561052B
:100FF00008940895E894BB2766277727CB0197F9D3
:1010000008950E948C0708F48FEF08950E94190834
:101010000C94C7070E94B90738F00E94C00720F05F
:10102000952311F00C94B0070C94B60711240C947E
:10103000FB070E94D80770F3959FC1F3950F50E00E
:10104000551F629FF001729FBB27F00DB11D639F7A
:10105000AA27F00DB11DAA1F649F6627B00DA11D20
:10106000661F829F2227B00DA11D621F739FB00DC6
:10107000A11D621F839FA00D611D221F749F332736
:10108000A00D611D231F849F600D211D822F762FCF
:101090006A2F11249F5750409AF0F1F088234AF0AC
:1010A000EE0FFF1FBB1F661F771F881F9150504018
:1010B000A9F79E3F510580F00C94B0070C94FB07F4
:1010C0005F3FE4F3983ED4F3869577956795B7959F
:1010D000F795E7959F5FC1F7FE2B880F911D9695B9
:1010E000879597F908950E948C07880B990B0895AE
:1010F000A1E21A2EAA1BBB1BFD010DC0AA1FBB1F1C
:10110000EE1FFF1FA217B307E407F50720F0A21B8D
:10111000B30BE40BF50B661F771F881F991F1A94FA
:1011200069F760957095809590959B01AC01BD0124
:10113000CF010895EE0FFF1F0590F491E02D099463
:10114000F894FFCF00000000E902160144014301BA
:101150006E616E00696E66006F766600766F6C7405
:101160006D65746572202020202020202020002022
:10117000202020202020202020202020202020206F
:101180002020202020202020202000766F6C74203A
:101190003D20202020202000766F6C74203D2020F0
:0A11A0002020202020202020000045
:107E0000112484B714BE81FFF0D085E080938100F7
:107E100082E08093C00088E18093C10086E0809377
:107E2000C20080E18093C4008EE0C9D0259A86E02C
:107E300020E33CEF91E0309385002093840096BBD3
:107E4000B09BFECF1D9AA8958150A9F7CC24DD24C4
:107E500088248394B5E0AB2EA1E19A2EF3E0BF2EE7
:107E6000A2D0813461F49FD0082FAFD0023811F036
:107E7000013811F484E001C083E08DD089C08234E0
:107E800011F484E103C0853419F485E0A6D080C0E4
:107E9000853579F488D0E82EFF2485D0082F10E0AE
:107EA000102F00270E291F29000F111F8ED06801E7
:107EB0006FC0863521F484E090D080E0DECF843638
:107EC00009F040C070D06FD0082F6DD080E0C81688
:107ED00080E7D80618F4F601B7BEE895C0E0D1E017
:107EE00062D089930C17E1F7F0E0CF16F0E7DF06D8
:107EF00018F0F601B7BEE89568D007B600FCFDCFD4
:107F0000A601A0E0B1E02C9130E011968C91119780
:107F100090E0982F8827822B932B1296FA010C0160
:107F200087BEE89511244E5F5F4FF1E0A038BF0790
:107F300051F7F601A7BEE89507B600FCFDCF97BE46
:107F4000E89526C08437B1F42ED02DD0F82E2BD052
:107F50003CD0F601EF2C8F010F5F1F4F84911BD097
:107F6000EA94F801C1F70894C11CD11CFA94CF0C13
:107F7000D11C0EC0853739F428D08EE10CD085E9AC
:107F80000AD08FE07ACF813511F488E018D01DD067
:107F900080E101D065CF982F8091C00085FFFCCF94
:107FA0009093C60008958091C00087FFFCCF809118
:107FB000C00084FD01C0A8958091C6000895E0E648
:107FC000F0E098E1908380830895EDDF803219F02E
:107FD00088E0F5DFFFCF84E1DECF1F93182FE3DFCA
:107FE0001150E9F7F2DF1F91089580E0E8DFEE27F6
:047FF000FF270994CA
:027FFE00040479
:00000001FF
